:100000000C9468000C9490000C9490000C94900058
:100010000C9490000C9490000C9490000C94900020
:100020000C9490000C9490000C9490000C94A503F8
:100030000C9490000C9490000C9490000C94900000
:100040000C945B030C9490000C9429030C94030310
:100050000C9490000C9490000C9490000C949000E0
:100060000C9490000C9490006364696E6F707375CB
:1000700078585B00000000002300260029000000E3
:100080000008000201000003040700000000000057
:10009000000000000000250028002B0000000000E8
:1000A000240027002A0004040404040404040202B7
:1000B00002020202030303030303010204081020E7
:1000C0004080010204081020010204081020660488
:1000D00011241FBECFEFD8E0DEBFCDBF11E0A0E0FE
:1000E000B1E0E2EEF7E102C005900D92AC31B1074C
:1000F000D9F722E0ACE1B1E001C01D92AC32B20709
:10010000E1F710E0C8E6D0E004C02197FE010E94AC
:100110005D08C736D107C9F70E94DF040C94EF0BC6
:100120000C94000090E0FC01E654FF4F2491FC0188
:10013000EA55FF4F8491882399F090E0880F991F2A
:10014000FC01E456FF4FA591B491FC01EE56FF4F20
:10015000859194918FB7F894EC91E22BEC938FBF3B
:100160000895CF92DF92EF92FF920F931F93CF9358
:10017000DF936C017A018B01C0E0D0E0CE15DF0582
:1001800089F0D8016D918D01D601ED91FC9101901E
:10019000F081E02DC6010995892B11F47E0102C082
:1001A0002196ECCFC701DF91CF911F910F91FF9066
:1001B000EF90DF90CF900895089580E090E008954B
:1001C000FC01538D448D252F30E0842F90E0821B5D
:1001D000930B541710F0CF96089501970895FC01E2
:1001E000918D828D981761F0828DDF01A80FB11D6E
:1001F0005D968C91928D9F5F9F73928F90E0089592
:100200008FEF9FEF0895FC01918D828D981731F04B
:10021000828DE80FF11D858D90E008958FEF9FEF9F
:100220000895FC01918D228D892F90E0805C9F4F75
:10023000821B91098F739927089584E691E00E94AB
:10024000110121E0892B09F420E0822F0895FC019F
:10025000848DDF01A80FB11DA35ABF4F2C91848D4F
:1002600090E001968F739927848FA689B7892C9384
:10027000A089B1898C9180648C93938D848D98131F
:1002800006C00288F389E02D80818F7D80830895E8
:10029000EF92FF920F931F93CF93DF93EC0181E0D6
:1002A000888F9B8D8C8D981305C0E889F989808192
:1002B00085FD24C0F62E0B8D10E00F5F1F4F0F73CE
:1002C0001127E02E8C8DE8120CC00FB607FCFACF78
:1002D000E889F989808185FFF5CFCE010E94270149
:1002E000F1CF8B8DFE01E80FF11DE35AFF4FF08235
:1002F0000B8FEA89FB898081806207C0EE89FF89C4
:100300006083E889F98980818064808381E090E05E
:10031000DF91CF911F910F91FF90EF900895CF93B0
:10032000DF93EC01888D8823C9F0EA89FB898081FD
:1003300085FD05C0A889B9898C9186FD0FC00FB6CF
:1003400007FCF5CF808185FFF2CFA889B9898C9110
:1003500085FFEDCFCE010E942701E7CFDF91CF913E
:10036000089580E090E0892B29F00E941D01811101
:100370000C9400000895833081F028F4813099F0C6
:100380008230A1F008958730A9F08830B9F0843028
:10039000D1F4809180008F7D03C0809180008F77A1
:1003A00080938000089584B58F7702C084B58F7DD7
:1003B00084BD08958091B0008F7703C08091B00014
:1003C0008F7D8093B0000895CF93DF93282F30E086
:1003D000F901E258FF4F8491F901E654FF4FD4919F
:1003E000F901EA55FF4FC491CC2391F081110E948D
:1003F000BB01EC2FF0E0EE0FFF1FEC58FF4FA59173
:10040000B491EC91ED2381E090E021F480E002C012
:1004100080E090E0DF91CF9108951F93CF93DF9319
:10042000282F30E0F901E258FF4F8491F901E6549A
:10043000FF4FD491F901EA55FF4FC491CC23C9F085
:10044000162F81110E94BB01EC2FF0E0EE0FFF1F71
:10045000EE56FF4FA591B4918FB7F894111105C0D6
:100460009C91ED2FE095E92302C0EC91ED2BEC93EC
:100470008FBFDF91CF911F9108953FB7F89480917E
:10048000220190912301A0912401B091250126B56C
:10049000A89B05C02F3F19F00196A11DB11D3FBFBC
:1004A000BA2FA92F982F8827820F911DA11DB11D4A
:1004B000BC01CD0142E0660F771F881F991F4A9546
:1004C000D1F70895FC0190819C3080F5818128E866
:1004D00030E0281B310987FD3395220F331F220F8F
:1004E000331F621773077CF0828128E532E0281BF6
:1004F000310987FD3395220F331F220F331F6217F7
:1005000073070CF49B0122503109220F331F4FB7A0
:10051000F894892F90E0FC01EE0FFF1F8E0F9F1FB4
:10052000FC01EF5FFD4F328321834FBF08950F938E
:100530001F93CF93DF931F92CDB7DEB78C01DC0101
:100540008C918C3008F055C0862F69830E949200F0
:10055000F8018081E82FF0E09F01220F331FE20FA6
:10056000F31FEF5FFD4F69816F739081907C692B62
:100570006083D80111961C92119712961C926CE020
:100580000E945108BCE08B9FB001112440E050E074
:100590009A01260F371FF901EE0FFF1F2E0F3F1F85
:1005A000F901EF5FFD4F908196FD16C04F5F5F4FE1
:1005B0004C30510569F781110FC01092800082E024
:1005C000809381001092850010928400B19A8091EE
:1005D0006F00826080936F00D801EC91F0E0CF0152
:1005E000880F991FE80FF91FEF5FFD4F808180642E
:1005F0008083F80180810F90DF91CF911F910F913F
:1006000008950E9463081F920F920FB60F92112453
:100610002F933F934F935F936F937F938F939F930A
:10062000AF93BF93EF93FF9384E691E00E9427017D
:10063000FF91EF91BF91AF919F918F917F916F91BA
:100640005F914F913F912F910F900FBE0F901F9090
:1006500018951F920F920FB60F9211242F938F931C
:100660009F93EF93FF93E0917401F0917501808166
:10067000E0917A01F0917B0182FD12C0908180911E
:100680007D018F5F8F7320917E01821751F0E09181
:100690007D01F0E0EC59FE4F958F80937D0101C004
:1006A0008081FF91EF919F918F912F910F900FBEBD
:1006B0000F901F9018951F920F920FB60F92112452
:1006C0002F933F938F939F93AF93BF9380911E017E
:1006D00090911F01A0912001B091210130911D0145
:1006E00023E0230F2D3720F40196A11DB11D05C075
:1006F00026E8230F0296A11DB11D20931D018093B2
:100700001E0190931F01A0932001B09321018091BD
:10071000220190912301A0912401B091250101961D
:10072000A11DB11D8093220190932301A093240168
:10073000B0932501BF91AF919F918F913F912F91E0
:100740000F900FBE0F901F9018951F920F920FB62B
:100750000F9211242F933F934F935F936F937F9347
:100760008F939F93AF93BF93EF93FF9380911C015F
:1007700087FF05C010928500109284001BC0209155
:100780001C01022E000C330B8091250290E02817EB
:10079000390784F480911C01082E000C990BFC0190
:1007A000EE0FFF1F8E0F9F1FFC01EF5FFD4F80813B
:1007B00086FD15C080911C018F5F80931C012091E4
:1007C0001C01022E000C330B8091250290E02817AB
:1007D0003907C4F480911C018C3064F113C08091FE
:1007E0001C01082E000C990BFC01EE0FFF1F8E0F51
:1007F0009F1FFC01EF5FFD4F808160E08F730E94BF
:100800000D02D8CF809184009091850004968034A9
:100810009C4918F480E49CE905C080918400909183
:100820008500049690938900809388008FEF8093D1
:100830001C013BC0209184003091850080911C01F7
:10084000082E000C990BFC01EE0FFF1F8E0F9F1F4F
:10085000FC01EF5FFD4F81819281820F931F909386
:1008600089008093880080911C01082E000C990B50
:10087000FC01EE0FFF1F8E0F9F1FFC01EF5FFD4F6E
:10088000808186FF12C080911C01082E000C990BFC
:10089000FC01EE0FFF1F8E0F9F1FFC01EF5FFD4F4E
:1008A000808161E08F730E940D02FF91EF91BF91F3
:1008B000AF919F918F917F916F915F914F913F91F8
:1008C0002F910F900FBE0F901F90189510926701F7
:1008D0001092660188EE93E0A0E0B0E0809368019A
:1008E00090936901A0936A01B0936B0184E091E059
:1008F000909365018093640185EC90E09093710181
:100900008093700184EC90E0909373018093720166
:1009100080EC90E0909375018093740181EC90E0FD
:10092000909377018093760182EC90E09093790127
:100930008093780186EC90E090937B0180937A011C
:1009400010927D0110927E0110927F011092800121
:10095000809125028C30A0F491E0980F90932502AD
:100960008093290290E0FC01EE0FFF1F8E0F9F1F66
:10097000FC01EF5FFD4F88EB9BE09283818303C016
:100980008FEF80932902809125028C30A0F491E0B2
:10099000980F909325028093260290E0FC01EE0FC1
:1009A000FF1F8E0F9F1FFC01EF5FFD4F88EB9BE049
:1009B0009283818308958FEF809326020895CF93C9
:1009C000DF93CDB7DEB728970FB6F894DEBF0FBE22
:1009D000CDBF789484B5826084BD84B5816084BDC8
:1009E00085B5826085BD85B5816085BD80916E00CD
:1009F000816080936E0010928100809181008260FE
:100A0000809381008091810081608093810080913A
:100A100080008160809380008091B1008460809329
:100A2000B1008091B00081608093B00080917A0025
:100A3000846080937A0080917A00826080937A004B
:100A400080917A00816080937A0080917A0080683A
:100A500080937A001092C100E0917401F0917501C9
:100A600082E08083E0917001F09171011082E09149
:100A70007201F091730187E6808310927C01E0910E
:100A80007801F091790186E08083E0917601F09120
:100A90007701808180618083E0917601F091770118
:100AA000808188608083E0917601F0917701808178
:100AB00080688083E0917601F091770180818F7D5D
:100AC00080838DE00E9492000E943D026B017C01B8
:100AD00060934601709347018093480190934901C8
:100AE0008BE00E94E40121E0019709F020E02093CF
:100AF000630185E00E94E40121E0019709F020E014
:100B000020935601C0925F01D0926001E092610192
:100B1000F0926201C0925201D0925301E0925401CE
:100B2000F09255019E012F5F3F4F69018E010B5FCF
:100B30001F4FE2E1EE2EE1E0FE2E0E943D024B014E
:100B40005C018BE00E94E40177247394019709F023
:100B5000712C85E00E94E401E1E0019709F0E0E0FA
:100B600080916301772059F0811137C080925F0135
:100B700090926001A0926101B09262012EC0882320
:100B800061F180915F0190916001A0916101B0914C
:100B9000620114012501281A390A4A0A5B0A2091C8
:100BA0005B0130915C0140915D0150915E01211526
:100BB00031054105510509F026C220925B013092B2
:100BC0005C0140925D0150925E01809257019092CB
:100BD0005801A0925901B0925A0180915B01909105
:100BE0005C01A0915D01B0915E01892B8A2B8B2B5A
:100BF000E9F08091570190915801A0915901B0916D
:100C00005A01A5019401281B390B4A0B5B0BDA0131
:100C1000C90181349C49A105B10540F010925B01E6
:100C200010925C0110925D0110925E01809156015C
:100C3000EE2359F0811137C08092520190925301F6
:100C4000A0925401B09255012EC0882361F1809189
:100C5000520190915301A0915401B091550114019A
:100C60002501281A390A4A0A5B0A20914E0130915F
:100C70004F0140915001509151012115310541051D
:100C8000510509F0DAC120924E0130924F01409295
:100C900050015092510180924A0190924B01A092D2
:100CA0004C01B0924D0180914E0190914F01A09165
:100CB0005001B0915101892B8A2B8B2BE9F0809147
:100CC0004A0190914B01A0914C01B0914D01A501B9
:100CD0009401281B390B4A0B5B0BDA01C9018134E3
:100CE0009C49A105B10540F010924E0110924F01B0
:100CF000109250011092510180924601909247014A
:100D0000A0924801B092490170926301E0935601AC
:100D100084E691E00E941101892B09F4A3C084E6C6
:100D200091E00E94EF003C014EE050E067E371E08B
:100D300086E391E00E94680886E391E060924401B6
:100D40004AE06416710421F7DF92CF921F930F934C
:100D5000FF92EF929F938F930E947A080FB6F894B8
:100D6000DEBF0FBECDBF029709F06BC020913201EC
:100D70003091330140913401509135014D805E80B6
:100D80006F807884211531054105510579F0A3E084
:100D9000B0E00E943708460E571E681E791E52E0CA
:100DA00076946794579447945A95D1F740923201BC
:100DB00050923301609234017092350180922E017D
:100DC00090922F01A0923001B092310120912A011E
:100DD00030912B0140912C0150912D0149805A8076
:100DE0006B807C80211531054105510579F0A3E028
:100DF000B0E00E943708460E571E681E791E42E07A
:100E000076946794579447944A95D1F740922A0173
:100E100050922B0160922C0170922D01809226013C
:100E200090922701A0922801B09229018DE00E94A2
:100E3000E40161E0019709F460E08DE00E940D0299
:100E400067CF109232011092330110923401109248
:100E5000350110922A0110922B0110922C01109250
:100E60002D0156CF8091320190913301A091340130
:100E7000B0913501892B8A2B8B2BE9F080912E01C3
:100E800090912F01A0913001B0913101A501940101
:100E9000281B390B4A0B5B0BDA01C90181389448D6
:100EA000AE41B10540F01092320110923301109220
:100EB00034011092350180912A0190912B01A0916B
:100EC0002C01B0912D01892B8A2B8B2BE1F0809185
:100ED000260190912701A0912801B0912901881A3B
:100EE000990AAA0ABB0A41E8841644E894064EE12E
:100EF000A406B10440F010922A0110922B01109226
:100F00002C0110922D0180904E0190904F01A090E5
:100F10005001B0905101E0912602F0E0CF01880F1E
:100F2000991FE80FF91FEF5FFD4F80818114910435
:100F3000A104B10409F452C086FD0CC066E070E063
:100F400089E292E00E9497026AE070E086E292E015
:100F50000E94970240902A0150902B0160902C0132
:100F600070902D01411451046104710469F1809164
:100F70005B0190915C01A0915D01B0915E01885789
:100F80009540A109B109873E9105A105B10528F059
:100F9000609132017091330102C06CED75E089E21D
:100FA00092E00E946202D501C40188579540A109D0
:100FB000B109893C9105A105B10570F4B20186E241
:100FC00092E00E9462021CC060915B0170915C0122
:100FD00089E292E00E946202B401F1CF86FF10C064
:100FE000A0912902B0E0CD01880F991FA80FB91F69
:100FF000AF5FBD4F8C918F7B8C9380818F7B808383
:101000000E94B1019ACDA3E0B0E00E943708DC0154
:10101000CB01820D931DA41DB51D72E0B695A79559
:10102000979587957A95D1F780935B0190935C01B2
:10103000A0935D01B0935E01C8CDA3E0B0E00E9433
:101040003708DC01CB01820D931DA41DB51D62E0A4
:10105000B695A795979587956A95D1F780934E0198
:1010600090934F01A0935001B093510114CE0E9470
:101070004208A59F900DB49F900DA49F800D911DD7
:1010800011240895A29FB001B39FC001A39F700DCA
:10109000811D1124911DB29F700D811D1124911D80
:1010A0000895991B79E004C0991F961708F0961BC4
:1010B000881F7A95C9F780950895EE0FFF1F059058
:1010C000F491E02D099481E090E0F8940C94EF0BFA
:1010D0006817790768F4FB01DC01E40FF51FA40F22
:1010E000B51F02C002900E9241505040D8F70895AB
:1010F0000C94550BAEE0B0E0E0E8F8E00C94C80BBF
:1011000085E08C838B899C899A838983AE01495EB3
:101110005F4F6D897E89CE0101960E94130A2E963B
:10112000E2E00C94E40B20FD09C0FC0123FD05C0A6
:1011300022FF02C07383628351834083089544FD7C
:1011400010C046FD10C0DB01FC01AA0FBB1FEE1F43
:10115000FF1F1094D1F76A0F7B1F8E1F9F1F31E076
:1011600003C033E001C034E0660F771F881F991F6A
:101170003150D1F7620F711D811D911D08950F939C
:101180001F93CF93DF938C01C8010E945E0BEC018B
:1011900097FD08C00E94410B892BB1F7B801CE0121
:1011A0000E949C0BCE01DF91CF911F910F9108956A
:1011B000A1E0B0E0EEEDF8E00C94BE0B8C01C62E81
:1011C0007A0129830E945E0BAC01552729814B329D
:1011D000510521F04D32510569F42068CA94C110BF
:1011E00002C080E076C0C80129830E945E0B29817D
:1011F00097FDF7CF322F3D7FD32E322F307349F535
:10120000803339F5BB24BA94BC0C09F44EC0C80134
:1012100029830E945E0B298197FD47C0382F3F7DAF
:10122000383569F48D2D8264D82ECA94CA94CC20A6
:10123000E1F1C8010E945E0B97FF0BC036C026FF8C
:1012400004C02D2D2260D22E03C03D2D3261D32E3D
:10125000CB2C812C912C540120ED280F283080F0CC
:10126000D4FE04C0B8010E949C0B1CC02A3040F080
:10127000D6FEF8CF2F7D3FEE320F363098F727504D
:101280004D2DC501B4010E949F084B015C018D2DBD
:101290008260D82ECA94CC2059F0C8010E945E0BFF
:1012A00097FFDACFD1FC04C09CCF812C912C540144
:1012B000D7FE08C0B094A09490948094811C911C97
:1012C000A11CB11C2D2DB501A401C7010E949308DA
:1012D00081E02196ECE00C94DA0BA1E2B0E0E3E7C8
:1012E000F9E00C94BC0B5C017A01CE0101966C0113
:1012F00080E2F60111928A95E9F7F501838040E0DA
:1013000050E0912C712C70E0A1E0B0E0F90183FC79
:10131000859183FE81918F01982F9F01811103C0D8
:1013200080E090E07CC08E3519F44115510549F1FB
:10133000E72FF0E0E417F5073CF48D3559F18D32D5
:1013400019F4772001F103C0711001C0982E892F84
:101350008695869586958601080F111D892F8770C1
:101360003D0101C0660C8A95EAF7F8018081862963
:101370008083991559F0991510F49F5FE8CF91502B
:10138000E6CF71E004C07724739401C0712C4F5FE5
:101390005F4FBCCF772019F08E8180628E837111F0
:1013A00003C09924939416C0F6019E012F5D3F4F10
:1013B000808180958193E217F307D1F7F2CFE11492
:1013C000F10429F0F7018083C70101967C01615087
:1013D000912CF9F0C50169A30E945E0B69A197FDEC
:1013E00016C0282F269526952695F601E20FF11DA9
:1013F000208130E0AC014770552702C03595279514
:101400004A95E2F720FDDBCFB5010E949C0B9110BD
:1014100087CFE114F10411F0F7011082C801A19601
:10142000EEE00C94D80B4F925F927F928F929F9236
:10143000AF92BF92CF92DF92EF92FF920F931F93E2
:10144000CF93DF931F92CDB7DEB76C012B015A010A
:10145000FC0117821682712CF601F380F201F3FC75
:101460008591F3FE8191382F2F01882309F4F3C071
:1014700090E039830E94410B3981892B21F0C6010C
:101480000E94BF08E9CF353241F4F201F3FC3591F7
:10149000F3FE31912F01353269F4C60139830E9480
:1014A0005E0B398197FDD5C03817B1F2B6010E94A5
:1014B0009C0BD1C03A3239F4F3FC3591F3FE3191F3
:1014C0002F0151E001C050E0420110E020ED230F58
:1014D0002A3090F45260612F70E080E090E040E2AA
:1014E00059830E949F08162FF401F3FC3591F3FEF7
:1014F00031914F015981EACF052F232F240151FF4C
:1015000003C0111102C0A7C01FEF383619F03C36D6
:1015100059F011C0F401F3FC2591F3FE21912F0144
:10152000283649F4052F08600460F201F3FC259188
:10153000F3FE21912F01222309F48DC0622F70E068
:1015400088E690E029830E944A0B2981892B09F4BF
:1015500082C000FD07C0F501E080F180C501029660
:101560005C0102C0E12CF12C2E3651F4F6014681CB
:10157000578160E070E0202FC7010E9493086CCF74
:10158000233691F401FF11E0C6010E945E0B97FD26
:1015900060C0E114F10429F0F7018083C7010196CE
:1015A0007C01115089F751C02B3559F49201A701E4
:1015B000612FC6010E946D092C01892B09F045C0DD
:1015C0003FC0C60129830E94BF08298197FD41C001
:1015D0002F3659F128F4243631F1293649F127C044
:1015E000233769F02537F9F022C0E114F10429F01E
:1015F000F7018082C70101967C01115071F0C6018C
:101600000E945E0B4C0197FD08C00E94410B892B84
:1016100061F3B601C4010E949C0BE114F104A9F02E
:10162000F701108212C0006203C0006101C00064B3
:10163000202FA701612FC6010E94D808811105C083
:10164000F6018381807329F406C000FD05CF7394F1
:1016500003CF772019F0872D90E002C08FEF9FEF26
:101660000F90DF91CF911F910F91FF90EF90DF903E
:10167000CF90BF90AF909F908F907F905F904F9052
:10168000089591110C94B50B803219F08950855052
:10169000C8F70895FC010590061621F00020D9F73F
:1016A000C00108953197CF010895FB01DC0102C00C
:1016B00001900D9241505040D8F70895CF93DF9399
:1016C000EC012B8120FF33C026FF0AC02F7B2B8328
:1016D0008E819F8101969F838E838A8190E029C0AD
:1016E00022FF0FC0E881F9818081082E000C990B40
:1016F000009719F420622B831AC03196F983E8838E
:101700000EC0EA85FB85099597FF09C02B810196DC
:1017100011F080E201C080E1822B8B8308C02E8112
:101720003F812F5F3F4F3F832E83992702C08FEF6A
:101730009FEFDF91CF910895FB01238120FF12C01D
:1017400026FD10C08F3F3FEF930761F082832F7D0E
:1017500020642383268137812150310937832683F2
:10176000992708958FEF9FEF089599278827089567
:101770002F923F924F925F926F927F928F929F92A1
:10178000AF92BF92CF92DF92EF92FF920F931F938F
:10179000CF93DF93CDB7DEB7CA1BDB0B0FB6F89440
:1017A000DEBF0FBECDBF09942A88398848885F8480
:1017B0006E847D848C849B84AA84B984C884DF80F1
:1017C000EE80FD800C811B81AA81B981CE0FD11DD5
:1017D0000FB6F894DEBF0FBECDBFED010895F894AB
:0217E000FFCF39
:1017E200000000004801B100E0008F011101EF008C
:0C17F20003017B256C752C256C757D00B7
:00000001FF
